:100000000C945D000C94BF050C9498050C9485002D
:100010000C9485000C9485000C9485000C9485004C
:100020000C9485000C9485000C9485000C9485003C
:100030000C9485000C9485000C9485000C9485002C
:100040000C944E050C9485000C9485000C9485004E
:100050000C9485000C9485000C9485000C9485000C
:100060000C94E6050C948500000000002400270095
:100070002A0000000000250028002B0004040404CE
:100080000404040402020202020203030303030342
:10009000010204081020408001020408102001021F
:1000A00004081020000000080002010000030407FB
:1000B0000000000000000000050711241FBECFEF64
:1000C000D8E0DEBFCDBF11E0A0E0B1E0E8E3F4E1AD
:1000D00002C005900D92A237B107D9F722E0A2E73E
:1000E000B1E001C01D92A537B207E1F710E0CDE500
:1000F000D0E004C02197FE010E94140ACC35D1073C
:10010000C9F70E9425070C941A0A0C94000081E09C
:1001100080933602089508950895AF92BF92CF92CA
:10012000DF92EF92FF920F931F93CF93DF936C01B7
:100130007B018B01040F151FEB015E01AE18BF0898
:10014000C017D10759F06991D601ED91FC9101904A
:10015000F081E02DC6010995892B79F7C501DF9162
:10016000CF911F910F91FF90EF90DF90CF90BF90B4
:10017000AF90089590E0FC01EC55FF4F2491FC01F5
:10018000E057FF4F3491FC01E458FF4FE491EE2318
:10019000C9F0222339F0233001F1A8F4213019F1FC
:1001A000223029F1F0E0EE0FFF1FEE58FF4FA5912E
:1001B000B4918FB7F894EC91611126C030953E232D
:1001C0003C938FBF08952730A9F02830C9F0243020
:1001D00049F7809180008F7D03C0809180008F77E8
:1001E00080938000DFCF84B58F7784BDDBCF84B56B
:1001F0008F7DFBCF8091B0008F778093B000D2CFFE
:100200008091B0008F7DF9CF3E2BDACFCF93DF9373
:1002100090E0FC01E057FF4F249184589F4FFC0170
:1002200084918823D1F090E0880F991FFC01E85950
:10023000FF4FA591B491FC01EE58FF4FC591D491A9
:1002400061110EC09FB7F8948C91E22FE0958E2338
:100250008C932881E223E8839FBFDF91CF9108959B
:100260008FB7F894EC91E22BEC938FBFF6CF3FB7AA
:10027000F8948091290290912A02A0912B02B091CA
:100280002C0226B5A89B05C02F3F19F00196A11D91
:10029000B11D3FBFBA2FA92F982F8827BC01CD01D0
:1002A000620F711D811D911D42E0660F771F881F2F
:1002B000991F4A95D1F708958F929F92AF92BF925E
:1002C000CF92DF92EF92FF924B015C010E943701C7
:1002D0006B017C010E9437016C197D098E099F0911
:1002E000683E734081059105A8F321E0821A9108C8
:1002F000A108B10888EEC80E83E0D81EE11CF11CED
:1003000081149104A104B10429F7FF90EF90DF90CC
:10031000CF90BF90AF909F908F90089508950895CB
:100320002091B301260F3327331F21323105ECF41E
:100330002091FC01FC0190E080E0243069F082E033
:100340000895A091B3012191AC014D565E4FA40FC9
:10035000B52FB11D2C930196861798F38091B301A8
:10036000680F6093B30180E0089581E008951092D2
:10037000FC0181E08093FB011092D60161E082E1F3
:100380000E94BA0061E083E10E94BA00E9EBF0E06C
:1003900080818E7F808380818D7F808388E48093BD
:1003A000B80085E48093BC000895CF93DF9391E07B
:1003B000909392018823B9F0C091B800D091BA000F
:1003C0008091BC008A7B8093BC0060E082E10E9447
:1003D000BA0060E083E10E94BA000E94B701D093A6
:1003E000BA00C093B800DF91CF9108950895E091CD
:1003F000340280913302E81730F4F0E0EE58FE4FFB
:10040000808190E008958FEF9FEF089590913402DE
:10041000809133022FEF3FEF981748F4E92FF0E077
:10042000EE58FE4F208130E09F5F90933402C90167
:1004300008958091330290913402891B990B08959D
:10044000CF92DF92EF92FF920F931F93CF93DF93A0
:100450007C01CB018A0120910202222389F0EB0169
:100460006B01C40ED51ECC15DD0569F06991D7016D
:10047000ED91FC910190F081E02DC7010995F3CF3A
:10048000642F0E949001C801DF91CF911F910F91BD
:10049000FF90EF90DF90CF900895CF93DF931F925E
:1004A000CDB7DEB76983209102022223F9F02091B3
:1004B0003102203258F021E030E0FC013383228306
:1004C00090E080E00F90DF91CF910895809132020B
:1004D000E82FF0E0ED5FFD4F998190838F5F80936F
:1004E00032028093310281E090E0ECCF61E0CE01F6
:1004F00001960E949001F7CFCF92DF92EF92FF9288
:100500000F931F93CF93DF93FC01C48121E02093CD
:100510000202C093230210923202109231028385AC
:10052000682B8DE592E00E944D02D0913102D132CC
:1005300008F092C00E9437016B017C018091FC01A0
:10054000811165C082E08093FC0181E08093FB0112
:100550008FEF8093FA011092F901D093F801A3E094
:10056000B2E0E8EDF1E080E0D81385C01092D70149
:100570008091D701CC0FC82BC093D7018091D601B1
:10058000813009F07CC01092D6010E9437016B01C6
:100590007C018091D7018093BB008091FE019091F6
:1005A000FF01A0910002B0910102892B8A2B8B2BB5
:1005B00099F00E9437010091FE011091FF012091F6
:1005C0000002309101026C197D098E099F090617FE
:1005D000170728073907E0F18091BC0083FDD9CFC8
:1005E00085EC8093BC000E9437016B017C018091F7
:1005F000FC01823009F445C08091FA018F3F61F11E
:100600008091FA01803241F18091FA0125C08091F8
:10061000FE019091FF01A0910002B0910102892B8F
:100620008A2B8B2B09F48ACF0E9437010091FE019F
:100630001091FF0120910002309101026C197D0997
:100640008E099F09061717072807390708F076CF84
:100650008091FD010E94D501109232021092310268
:1006600010920202DF91CF911F910F91FF90EF90B6
:10067000DF90CF9008959D9191938F5F75CF85EE18
:10068000B0CF8091FE019091FF01A0910002B09146
:100690000102892B8A2B8B2B09F4A9CF0E943701E9
:1006A0000091FE011091FF012091000230910102A2
:1006B0006C197D098E099F09061717072807390746
:1006C00008F095CFC5CF90E080E00895FC0130E0C0
:1006D00020E040E255E090812F303105B1F081817A
:1006E000963039F14CF49530F1F02F5F3F4F319651
:1006F0002031310581F714C09730E9F09032A9F725
:10070000853079F080E28083F0CF862F963089F0B3
:100710001CF4953041F00895973069F0903281F3E0
:10072000089586E0F0CF803211F085E0ECCF87E0CD
:10073000EACF5083DACF4083D8CFFC01019000206C
:10074000E9F73197AF01481B590BBC0189E692E0EC
:100750000C948D000F931F93CF938C01C62F0E9492
:100760007C026C2F6460C8010E947C026C2F6B7F3E
:10077000C8010E947C0283EC90E00197F1F7CF91D1
:100780001F910F9108950F931F93CF93DF938C01C7
:10079000D62FC42F607F642B0E94AA0380E1D89FCC
:1007A000B00111246C2BC801DF91CF911F910F91E3
:1007B0000C94AA03CF93DF93CDB7DEB728970FB67B
:1007C000F894DEBF0FBECDBF98E0E2E4F1E0DE01B9
:1007D000119601900D929A95E1F7909171029617FA
:1007E00008F46FEF262F30E0220F331F41E050E076
:1007F0004C0F5D1F240F351FF9016081680F606881
:1008000040E089E692E028960FB6F894DEBF0FBE6E
:10081000CDBFDF91CF910C94C3034F925F926F9243
:100820007F92AF92BF92CF92DF92EF92FF920F939F
:100830001F93CF93DF93CDB7DEB7A1970FB6F89490
:10084000DEBF0FBECDBF7B01B0904D02A0903C0239
:100850008D3008F0AAC0E82FF0E0EF5CFB4F0C945D
:10086000140ADD04CB04CB04DA04C804C504C504AF
:10087000C504C504C804DA043E04D70480E291E04C
:1008800090934D0211E090E2B91201C010E0803265
:1008900009F082C004E0F8EEEF16F3E0FF0658F42A
:1008A00003E084E6E816F10430F401E09AE0E9168A
:1008B000F10408F002E010925C0210924B0280E119
:1008C000C82ED12CC01AD108F601E45BFD4F6F0190
:1008D0007080108260E080E00E94DA038CE492E095
:1008E0000E949D03F601708261E080E00E94DA03BD
:1008F0008BE392E00E949D0360E080E1801B0E94F8
:10090000DA03970150E040E019A27E01F1E2EF0E18
:10091000F11C9AE0492E512C612C712CCA01B901AD
:10092000A30192010E94E309605DF70162937F01D8
:10093000211531054105510589F7309761F0019086
:100940000020E9F73197AF014E195F09B70189E639
:1009500092E00E948D00B0924D02A0923C02812F45
:10096000A1960FB6F894DEBF0FBECDBFDF91CF9139
:100970001F910F91FF90EF90DF90CF90BF90AF90BD
:100980007F906F905F904F90089580E293E078CFD2
:1009900084E09EE275CF10E080933C0281E0E0E2CB
:1009A000AE1201C080E0182B75CF90E069CF80E2D5
:1009B00092E066CF10E083E0EFCF10E06BCF41E034
:1009C0000E94C30381E090E00895EF92FF920F939D
:1009D0001F93CF9300E011E0C8E040E06C2F60640B
:1009E00089E692E00E94C303780188E0E80EF11CDA
:1009F000F80161918F0189E692E00E94DF040E15F3
:100A00001F05B1F7C85FC03441F7ECE4F2E0ABE397
:100A1000B2E080E281938D9392E0EC35F907D1F753
:100A2000CF911F910F91FF90EF90089585ED8093E6
:100A3000BC008091FE019091FF01A0910002B09155
:100A400001020796A11DB11D23E0B695A7959795C4
:100A500087952A95D1F72091BC0024FD03C0109200
:100A6000FC0108954091FE015091FF016091000248
:100A700070910102452B462B472B69F30097A10586
:100A8000B10541F025E32A95F1F700000197A1098E
:100A9000B109E1CF8091FD010C94D5011F920F9215
:100AA0000FB60F9211242F933F938F939F93AF9381
:100AB000BF938091250290912602A0912702B091C8
:100AC00028023091240223E0230F2D3758F5019698
:100AD000A11DB11D2093240280932502909326022C
:100AE000A0932702B09328028091290290912A02B4
:100AF000A0912B02B0912C020196A11DB11D8093F3
:100B0000290290932A02A0932B02B0932C02BF914A
:100B1000AF919F918F913F912F910F900FBE0F90AA
:100B20001F90189526E8230F0296A11DB11DD2CF64
:100B30001F920F920FB60F9211242F933F934F9352
:100B40005F936F937F938F939F93AF93BF93EF9335
:100B5000FF93E0913A01F0913B010995FF91EF91EC
:100B6000BF91AF919F918F917F916F915F914F91C5
:100B70003F912F910F900FBE0F901F9018951F92CD
:100B80000F920FB60F9211242F933F934F935F93C1
:100B90006F937F938F939F93AF93BF93EF93FF9345
:100BA000E0913801F09139010995FF91EF91BF91E2
:100BB000AF919F918F917F916F915F914F913F91F5
:100BC0002F910F900FBE0F901F9018951F920F92AC
:100BD0000FB60F9211242F933F934F935F936F9310
:100BE0007F938F939F93AF93BF93EF93FF938091E6
:100BF000B900887F803609F44AC0F0F5883209F4DC
:100C0000A7C018F5803109F49BC0B8F4882309F413
:100C1000F9C0883009F494C0FF91EF91BF91AF9172
:100C20009F918F917F916F915F914F913F912F9104
:100C30000F900FBE0F901F901895883109F488C04F
:100C4000803251F78093FA0114C0803409F49DC0BA
:100C500040F48033B9F38833F9F68093FA0185ECD8
:100C6000B0C0803509F485C0883509F496C0883451
:100C700099F60E941605D0CF883909F48CC038F552
:100C8000883729F050F4883611F0803729F683E050
:100C90008093FC011092D50157C0883809F47BC0BD
:100CA000803919F0803809F0B7CF8091D5018032B2
:100CB00008F071C0E091D50181E08E0F8093D501DD
:100CC0008091BB00F0E0EB54FE4F80833DC0803B41
:100CD00039F0E0F4803A09F479C0883A09F09CCF01
:100CE00084E08093FC011092B4011092B301E09172
:100CF0002F02F091300209958091B30181110FC04C
:100D000081E08093B3011092930109C0803C09F403
:100D1000A6CF883C09F4A3CF883B09F07DCFE091B2
:100D2000B40181E08E0F8093B401F0E0ED56FE4FE8
:100D300080818093BB009091B4018091B30129C060
:100D40008091D7018093BB0085EC8093BC0064CF79
:100D50009091F9018091F801981758F5E091F90107
:100D600081E08E0F8093F901F0E0E852FE4F808120
:100D7000E9CFE091F90181E08E0F8093F901809134
:100D8000BB00F0E0E852FE4F80839091F901809122
:100D9000F8019817C8F285E8D8CFE091F90181E011
:100DA0008E0F8093F9018091BB00F0E0E852FE4F76
:100DB00080838091FB0181115CCF81E08093D6011B
:100DC00084EA8093BC001092FC0126CF85EC8093CE
:100DD000BC001092FC018091D501803230F4E0918A
:100DE000D501F0E0EB54FE4F10826091D50170E028
:100DF000E0912D02F0912E0285EB91E00995109281
:100E0000D5010ACF1092FA0134CFEDE5F2E013825A
:100E1000128288EE93E0A0E0B0E084839583A683FD
:100E2000B7838EE491E091838083E9E6F2E0138258
:100E3000128280E691E09183808380E2848380E166
:100E4000818782E0828713860895789484B58260D2
:100E500084BD84B5816084BD85B5826085BD85B55E
:100E6000816085BD80916E00816080936E001092DC
:100E70008100809181008260809381008091810057
:100E800081608093810080918000816080938000E8
:100E90008091B10084608093B1008091B000816046
:100EA0008093B00080917A00846080937A00809172
:100EB0007A00826080937A0080917A0081608093CA
:100EC0007A0080917A00806880937A001092C10045
:100ED00061E08AE00E94060160E08AE00E94BA00B8
:100EE00061E08CE00E94060160E08CE00E94BA00A4
:100EF00060E082E00E94060161E082E00E94BA00A8
:100F000061E081E00E94060161E081E00E94BA0098
:100F100087E890E0909339018093380180916900CF
:100F20008C7F826080936900E89A0E94E5041092A9
:100F300034021092330210923202109231020E9457
:100F4000B7018BE890E09093300280932F028CE8F9
:100F500090E090932E0280932D0210926E02809169
:100F60007302823018F098E090936E0280937102C1
:100F700062E370E080E090E00E945C0160917402A6
:100F800089E692E00E947C0268EE73E080E090E0E7
:100F90000E945C0160E389E692E00E94AA03CBE430
:100FA000D6E4CE010197F1F760E389E692E00E9472
:100FB000AA032197F1F760E389E692E00E94AA0371
:100FC00083E592E00197F1F760E289E692E00E9402
:100FD000AA0360916E02606240E089E692E00E949E
:100FE000C30384E080936F0240E06CE089E692E006
:100FF0000E94C30340E061E089E692E00E94C303DF
:10100000CBE3DFE1CE010197F1F782E0809370023C
:1010100040E066E089E692E00E94C30340E062E0BF
:1010200089E692E00E94C3032197F1F788E080935C
:10103000740260E089E692E00E947C02D1E03AE02E
:10104000C32ED12CE12CF12C43E0842E912CA12C29
:10105000B12C00E010E0C1E057E0752E6BE0662E89
:1010600023E0522E80913A02811141C060913802F2
:101070007091390293E0769567959A95E1F78091A2
:101080003702811132C080913D010E940D04809190
:101090003702882341F060E080E00E94DA0388E6AE
:1010A00091E00E949D036AEF70E080E090E00E9472
:1010B0005C01809137028D27809337028091360240
:1010C000882361F00E94E504C0933D01C0933A0279
:1010D0001092360210923902109238020115110551
:1010E00009F4C0CF0E940000BBCF80E0CECF40907B
:1010F000350281E065E0481260E28BE392E00E94F5
:10110000660382E065E0481260E28CE492E00E94AF
:10111000660380913C01815080933C01811118C08D
:1011200041103CC00E945909A50194010E94B109D7
:10113000672B682B692B81F582E0809335020E9432
:101140005909A70196010E94B1096E5F60933C01A5
:1011500080913602882341F080913D01833010F464
:1011600050923D011092360260913802709139021E
:1011700083E0769567958A95E1F780913D010E941D
:101180000D048823A9F010923A0264E670E080E032
:1011900090E00E945C01A2CF81E0CFCF1092350297
:1011A0000E945909A70196010E94B109665FCECF3E
:1011B00080913D01982F977F9230A9F4C0933D0113
:1011C0008091380290913902019690933902809370
:1011D000380261E080913E02803209F060E081E0F7
:1011E0000E94BA00D2CF9BEF980F933038F49091C1
:1011F0003C02903271F060923D01E2CF8B3048F0BA
:1012000090913C02903219F470923D01D9CF8C300C
:1012100091F38F5F80933D01D3CF8F929F92AF92D6
:10122000BF92CF92DF92EF92FF92CF93DF93EC01C8
:10123000688179818A819B8161157105810591059C
:1012400021F464E279ED8BE597E02DE133EF41E0A5
:1012500050E00E94B10949015A019B01AC01A7EA83
:10126000B1E40E94D0096B017C01ACEEB4EFA501A2
:1012700094010E94DE09C60ED71EE81EF91EF7FE75
:1012800006C081E0C81AD108E10880E8F80AC882DF
:10129000D982EA82FB82C701B6019F77DF91CF91A5
:1012A000FF90EF90DF90CF90BF90AF909F908F9086
:1012B00008958F929F92AF92BF92CF92DF92EF925A
:1012C000FF9260913E0170913F01809140019091A9
:1012D0004101611571058105910521F464E279ED03
:1012E0008BE597E02DE133EF41E050E00E94B1093A
:1012F00049015A019B01AC01A7EAB1E40E94D0095F
:101300006B017C01ACEEB4EFA50194010E94DE09F3
:10131000C60ED71EE81EF91EF7FE06C081E0C81AE9
:10132000D108E10880E8F80AC0923E01D0923F015E
:10133000E0924001F0924101C701B6019F77FF9012
:10134000EF90DF90CF90BF90AF909F908F900895D7
:1013500060933E0170933F0180934001909341015F
:101360000895052E97FB1EF400940E94C80957FDAE
:1013700007D00E94E30907FC03D04EF40C94C8097F
:1013800050954095309521953F4F4F4F5F4F0895B1
:1013900090958095709561957F4F8F4F9F4F0895E1
:1013A0000E94050AA59F900DB49F900DA49F800DEB
:1013B000911D11240895B7FF0C94D0090E94D00903
:1013C000821B930B0895A1E21A2EAA1BBB1BFD01E1
:1013D0000DC0AA1FBB1FEE1FFF1FA217B307E40714
:1013E000F50720F0A21BB30BE40BF50B661F771F6C
:1013F000881F991F1A9469F760957095809590954C
:101400009B01AC01BD01CF010895A29FB001B39F24
:10141000C001A39F700D811D1124911DB29F700DFD
:10142000811D1124911D0895EE0FFF1F0590F49169
:08143000E02D0994F894FFCFB0
:101438000C0C000E1C0C1A130C0C000C0C0C0C0ED3
:101448000C0C001E0D1F10001E0D1F1000000000C8
:101458001F1F1F1F1F1F1F1F030303030303030374
:1014680018181818181818188E018E010101010093
:1014780000000000400014005400000000004D026D
:1014880020026303F60119020602F70100000000BA
:10149800DF048D0063038F0147616D65204F76651A
:0214A8007200D0
:00000001FF
